:0A0CE5003F065B4F666D7D077F6FD1
:100C8500011201011300020C000002080046020ACD
:100C95000000021000640214000002160000020E9B
:020CA50000004D
:0F0CBA00120BFE7C007D08120A14AF05AE042257
:100C4B00120CBA8F19120CBA8F2E7F017E00AD18C1
:100C5B007C00C3EF9DEE9C501874192FF8E6B51964
:100C6B0009742E2FF8E6652E60070FBF00010E806A
:0A0C7B00DDEDB507CBECB506C7228E
:100BA500758901758CD8758AF0D2A9D28CD2AFE43B
:100BB500F5807590FFF5A0751804F50CF50D7F010E
:100BC500FEC3EF9518EE94005012C374049FFD7494
:100BD500182FF8A6050FBF00010E80E57E007F01E6
:100BE500C3EF9518EE9400500D742D2FF8E4F60F11
:090BF500BF00010E80EA020C4B66
:0E0CC900EF600B7EFFEE60031E80FA1F80F2CC
:010CD70022FA
:100A4A0020953B7F78120CC9209533E50F64014548
:100A5A000E700BF50EF50FF5087509468020E509AD
:100A6A00640A4508700CF50E750F01F5087509281A
:100A7A00800C74E22509F50974FF3508F508209001
:100A8A000E20920BE513F46006E4F51275130120AB
:100A9A00900F20930CE51364016006E4F5127513B8
:100AAA00FF20900F20910CE51264016006E4F51313
:100ABA007512FF20900E20940BE512F46006E4F5FF
:050ACA0013751201226A
:100B4900E50F450E7015E51AD394075006E52F9465
:100B590007400E750A00750B018006531A07532FBB
:100B6900077F027E00C3EF9518EE9400502D742E76
:100B79002FF8E6B52F047D0180027D0074192FF846
:100B8900E6B51A047C0180027C00EC5D6006750AFA
:0B0B990000750B010FBF00010E80CAA9
:010BA400222E
:10089F00E4F547F548AF13EF3395E0FEE52F2FFF53
:1008AF00E43EFEE52EB50708E4B506047F0180029D
:1008BF007F00E512FD3395E0FCE51A2DFDE43CFCCD
:1008CF00E519B50508E4B504047E0180027E00EE4B
:1008DF005F604C754700754801050DE50D70020509
:1008EF000C0518E51824FFFFE434FFFED3EF940046
:1008FF00EE9400401F74182FF8E6FD74192FF8A618
:10090F0005742D2FF8E6FD742E2FF8A605EF1F7036
:10091F00DB1E80D8120C4BE518B41503120BA5AED5
:03092F0047AF4887
:0109320022A2
:0D0CD8007401A807088002C333D8FCFF2276
:100ACF00E4FDFCC3ED9518EC9400503174192DF82A
:100ADF00E6FF120CD88FA0742E2DF8E6FF120CD85B
:100AEF00C374FF9FF580120A4A7F01120CC9E4F507
:100AFF00A07580FFF5B00DBD00010C80C6AE0CAF28
:100B0F000D7C007D0A1209BF8E148F15AE0CAF0D30
:100B1F007C007D0A1209BF8C168D17C296D297E5FD
:100B2F0015900CE593F5B07F01120CC9D296C297C0
:0A0B3F00E51793F5B07F01020CC921
:03000B00020800E8
:10080000C0E0C0F0C083C082C0D075D000C000C0BE
:0D08100001C002C003C004C005C006C0073F
:10081D00758CD8758AF0E511151170021510E5115A
:10082D004510705320904A12089FEF4E7043E51803
:10083D0024FFFFE434FFFED3EF9401EE9400401F3C
:10084D0074182FF8E6FD74192FF8A605742D2FF8DE
:10085D00E6FD742E2FF8A605EF1F70DB1E80D8E580
:10086D001B2512F51AE5302513F52F120ACF120BA1
:07087D0049850810850911EF
:10088400D007D006D005D004D003D002D001D000C8
:0B089400D0D0D082D083D0F0D0E03272
:100CA800120BA5E50B450A7008120A4A120ACF80F2
:020CB800F22226
:03000000020933BF
:0C093300787FE4F6D8FD75814802097A4F
:1009BF00BC000BBE0029EF8DF084FFADF022E4CC1C
:1009CF00F875F008EF2FFFEE33FEEC33FCEE9DECE5
:1009DF00984005FCEE9DFE0FD5F0E9E4CEFD22ED2B
:1009EF00F8F5F0EE8420D21CFEADF075F008EF2F75
:1009FF00FFED33FD4007985006D5F0F222C398FD66
:050A0F000FD5F0EA2202
:100A1400C2D5EC30E709B2D5E4C39DFDE49CFCEEFD
:100A240030E715B2D5E4C39FFFE49EFE1209BFC3AD
:100A3400E49DFDE49CFC80031209BF30D507C3E4A8
:060A44009FFFE49EFE226C
:100BFE00AC43AD44AE45AF467810EC4D4E4F70044D
:100C0E007CA57DA5C3EC13FCED13FDEE13FEEF13D7
:100C1E00FF5010EC64CCFCED644CFDEE644EFEEF28
:100C2E0064CEFFD8DF8C438D448E458F46EE547FC5
:0D0C3E00FE228E438F4474A5F545F5462235
:10093F00020CA8E493A3F8E493A34003F68001F21A
:10094F0008DFF48029E493A3F85407240CC8C333B9
:10095F00C4540F4420C8834004F456800146F6DF88
:10096F00E4800B0102040810204080900C85E47E87
:10097F00019360BCA3FF543F30E509541FFEE4937D
:10098F00A360010ECF54C025E060A840B8E493A344
:10099F00FAE493A3F8E493A3C8C582C8CAC583CA6F
:1009AF00F0A3C8C582C8CAC583CADFE9DEE780BE27
:010CA700004C
:00000001FF
